{
    "contractName": "MainContract",
    "abi": [
        {
            "inputs": [],
            "stateMutability": "nonpayable",
            "type": "constructor"
        },
        {
            "inputs": [],
            "name": "getFirstName",
            "outputs": [
                {
                    "internalType": "bytes32",
                    "name": "",
                    "type": "bytes32"
                }
            ],
            "stateMutability": "nonpayable",
            "type": "function"
        },
        {
            "inputs": [],
            "name": "getLastName",
            "outputs": [
                {
                    "internalType": "bytes32",
                    "name": "",
                    "type": "bytes32"
                }
            ],
            "stateMutability": "nonpayable",
            "type": "function"
        },
        {
            "inputs": [
                {
                    "internalType": "bytes32",
                    "name": "_firstName",
                    "type": "bytes32"
                }
            ],
            "name": "setFirstName",
            "outputs": [],
            "stateMutability": "nonpayable",
            "type": "function"
        },
        {
            "inputs": [
                {
                    "internalType": "bytes32",
                    "name": "_lastName",
                    "type": "bytes32"
                }
            ],
            "name": "setLastName",
            "outputs": [],
            "stateMutability": "nonpayable",
            "type": "function"
        },
        {
            "inputs": [
                {
                    "internalType": "address",
                    "name": "newImplementation",
                    "type": "address"
                }
            ],
            "name": "upgradeTo",
            "outputs": [],
            "stateMutability": "nonpayable",
            "type": "function"
        }
    ],
    "bytecode": "608060405234801561001057600080fd5b50600080546001600160a01b03191633179055610331806100326000396000f3fe608060405234801561001057600080fd5b50600436106100575760003560e01c806326ba16ea1461005c5780633659cfe61461007157806337463899146100845780636b10928214610097578063932997f1146100b5575b600080fd5b61006f61006a36600461029e565b6100bd565b005b61006f61007f366004610270565b610122565b61006f61009236600461029e565b610177565b61009f6101a7565b6040516100ac91906102ce565b60405180910390f35b61009f61022a565b60015460405163135d0b7560e11b81526001600160a01b03909116906326ba16ea906100ed9084906004016102ce565b600060405180830381600087803b15801561010757600080fd5b505af115801561011b573d6000803e3d6000fd5b5050505050565b6000546001600160a01b031633146101555760405162461bcd60e51b815260040161014c906102d7565b60405180910390fd5b600180546001600160a01b0319166001600160a01b0392909216919091179055565b600154604051633746389960e01b81526001600160a01b03909116906337463899906100ed9084906004016102ce565b60015460408051633588494160e11b815290516000926001600160a01b031691636b10928291600480830192602092919082900301818787803b1580156101ed57600080fd5b505af1158015610201573d6000803e3d6000fd5b505050506040513d601f19601f8201168201806040525081019061022591906102b6565b905090565b6001546040805163932997f160e01b815290516000926001600160a01b03169163932997f191600480830192602092919082900301818787803b1580156101ed57600080fd5b600060208284031215610281578081fd5b81356001600160a01b0381168114610297578182fd5b9392505050565b6000602082840312156102af578081fd5b5035919050565b6000602082840312156102c7578081fd5b5051919050565b90815260200190565b6020808252600a908201526927b7363c9027bbb732b960b11b60408201526060019056fea264697066735822122028debd92de9d95dc128f97c1dda8ba16fe20766e8cadcdedde15b627641e4d4564736f6c63430008000033",
    "sourcePath": "/Users/boom/solidity/upgradability/contracts/simple-interface/MainContract.sol",
    "compiler": {
        "name": "solc",
        "version": "0.8.0+commit.c7dfd78e"
    },
    "functionHashes": {
        "getFirstName()": "932997f1",
        "getLastName()": "6b109282",
        "setFirstName(bytes32)": "37463899",
        "setLastName(bytes32)": "26ba16ea",
        "upgradeTo(address)": "3659cfe6"
    },
    "gasEstimates": {
        "creation": {
            "codeDepositCost": "163400",
            "executionCost": "21043",
            "totalCost": "184443"
        },
        "external": {
            "getFirstName()": "infinite",
            "getLastName()": "infinite",
            "setFirstName(bytes32)": "infinite",
            "setLastName(bytes32)": "infinite",
            "upgradeTo(address)": "21976"
        }
    }
}