{
    "contractName": "SatelliteContractV1",
    "abi": [
        {
            "inputs": [],
            "name": "getFirstName",
            "outputs": [
                {
                    "internalType": "bytes32",
                    "name": "",
                    "type": "bytes32"
                }
            ],
            "stateMutability": "view",
            "type": "function"
        },
        {
            "inputs": [],
            "name": "getLastName",
            "outputs": [
                {
                    "internalType": "bytes32",
                    "name": "",
                    "type": "bytes32"
                }
            ],
            "stateMutability": "view",
            "type": "function"
        },
        {
            "inputs": [
                {
                    "internalType": "bytes32",
                    "name": "_firstName",
                    "type": "bytes32"
                }
            ],
            "name": "setFirstName",
            "outputs": [],
            "stateMutability": "nonpayable",
            "type": "function"
        },
        {
            "inputs": [
                {
                    "internalType": "bytes32",
                    "name": "_lastName",
                    "type": "bytes32"
                }
            ],
            "name": "setLastName",
            "outputs": [],
            "stateMutability": "nonpayable",
            "type": "function"
        }
    ],
    "bytecode": "608060405234801561001057600080fd5b5060f78061001f6000396000f3fe6080604052348015600f57600080fd5b506004361060465760003560e01c806326ba16ea14604b5780633746389914605c5780636b10928214606b578063932997f1146085575b600080fd5b605a605636600460a1565b608b565b005b605a606736600460a1565b6090565b60716095565b604051607c919060b8565b60405180910390f35b6071609b565b600155565b600055565b60015490565b60005490565b60006020828403121560b1578081fd5b5035919050565b9081526020019056fea2646970667358221220ac376d64e804caa2ea1712e155c99d8b21676a354fe7f5cdd0dd90fb52e8b0de64736f6c63430008000033",
    "sourcePath": "/Users/boom/solidity/upgradability/contracts/simple-interface/SatelliteContractV2.sol",
    "compiler": {
        "name": "solc",
        "version": "0.8.0+commit.c7dfd78e"
    },
    "functionHashes": {
        "getFirstName()": "932997f1",
        "getLastName()": "6b109282",
        "setFirstName(bytes32)": "37463899",
        "setLastName(bytes32)": "26ba16ea"
    },
    "gasEstimates": {
        "creation": {
            "codeDepositCost": "49400",
            "executionCost": "99",
            "totalCost": "49499"
        },
        "external": {
            "getFirstName()": "1072",
            "getLastName()": "1050",
            "setFirstName(bytes32)": "20224",
            "setLastName(bytes32)": "20202"
        }
    }
}